{
  "contractName": "UpDown",
  "abi": [
    {
      "inputs": [],
      "payable": false,
      "stateMutability": "nonpayable",
      "type": "constructor"
    },
    {
      "constant": true,
      "inputs": [
        {
          "internalType": "uint256",
          "name": "",
          "type": "uint256"
        }
      ],
      "name": "bets",
      "outputs": [
        {
          "internalType": "uint256",
          "name": "",
          "type": "uint256"
        }
      ],
      "payable": false,
      "stateMutability": "view",
      "type": "function"
    },
    {
      "constant": true,
      "inputs": [
        {
          "internalType": "address",
          "name": "",
          "type": "address"
        },
        {
          "internalType": "uint256",
          "name": "",
          "type": "uint256"
        }
      ],
      "name": "betsPerGambler",
      "outputs": [
        {
          "internalType": "uint256",
          "name": "",
          "type": "uint256"
        }
      ],
      "payable": false,
      "stateMutability": "view",
      "type": "function"
    },
    {
      "constant": true,
      "inputs": [],
      "name": "owner",
      "outputs": [
        {
          "internalType": "address payable",
          "name": "",
          "type": "address"
        }
      ],
      "payable": false,
      "stateMutability": "view",
      "type": "function"
    },
    {
      "constant": false,
      "inputs": [
        {
          "internalType": "uint256",
          "name": "_time",
          "type": "uint256"
        }
      ],
      "name": "startGame",
      "outputs": [
        {
          "internalType": "uint256",
          "name": "",
          "type": "uint256"
        }
      ],
      "payable": false,
      "stateMutability": "nonpayable",
      "type": "function"
    },
    {
      "constant": true,
      "inputs": [],
      "name": "getBalance",
      "outputs": [
        {
          "internalType": "uint256",
          "name": "",
          "type": "uint256"
        }
      ],
      "payable": false,
      "stateMutability": "view",
      "type": "function"
    },
    {
      "constant": false,
      "inputs": [
        {
          "internalType": "uint256",
          "name": "_side",
          "type": "uint256"
        }
      ],
      "name": "placeBet",
      "outputs": [],
      "payable": true,
      "stateMutability": "payable",
      "type": "function"
    },
    {
      "constant": false,
      "inputs": [
        {
          "internalType": "uint256",
          "name": "_bonus",
          "type": "uint256"
        }
      ],
      "name": "setBonus",
      "outputs": [],
      "payable": false,
      "stateMutability": "nonpayable",
      "type": "function"
    },
    {
      "constant": false,
      "inputs": [],
      "name": "withdrawGain",
      "outputs": [],
      "payable": true,
      "stateMutability": "payable",
      "type": "function"
    },
    {
      "constant": false,
      "inputs": [
        {
          "internalType": "uint256",
          "name": "_winner",
          "type": "uint256"
        },
        {
          "internalType": "uint256",
          "name": "_loser",
          "type": "uint256"
        }
      ],
      "name": "reportResult",
      "outputs": [],
      "payable": false,
      "stateMutability": "nonpayable",
      "type": "function"
    }
  ],
  "bytecode": "0x608060405260008055600180556000600460006101000a81548160ff02191690831515021790555034801561003357600080fd5b5033600760006101000a81548173ffffffffffffffffffffffffffffffffffffffff021916908373ffffffffffffffffffffffffffffffffffffffff160217905550610b0d806100846000396000f3fe6080604052600436106100865760003560e01c806322af00fa1161005957806322af00fa1461018e5780632b539c86146101dd5780638da5cb5b146101e7578063ad094f3d1461023e578063e5ed1d591461028357610086565b806305f7fedf1461008b5780630b98f975146100fa57806310fe7c481461013557806312065fe014610163575b600080fd5b34801561009757600080fd5b506100e4600480360360408110156100ae57600080fd5b81019080803573ffffffffffffffffffffffffffffffffffffffff169060200190929190803590602001909291905050506102d2565b6040518082815260200191505060405180910390f35b34801561010657600080fd5b506101336004803603602081101561011d57600080fd5b81019080803590602001909291905050506102f7565b005b6101616004803603602081101561014b57600080fd5b81019080803590602001909291905050506103c4565b005b34801561016f57600080fd5b50610178610547565b6040518082815260200191505060405180910390f35b34801561019a57600080fd5b506101c7600480360360208110156101b157600080fd5b810190808035906020019092919050505061054f565b6040518082815260200191505060405180910390f35b6101e5610567565b005b3480156101f357600080fd5b506101fc6108b7565b604051808273ffffffffffffffffffffffffffffffffffffffff1673ffffffffffffffffffffffffffffffffffffffff16815260200191505060405180910390f35b34801561024a57600080fd5b506102816004803603604081101561026157600080fd5b8101908080359060200190929190803590602001909291905050506108dd565b005b34801561028f57600080fd5b506102bc600480360360208110156102a657600080fd5b81019080803590602001909291905050506109d3565b6040518082815260200191505060405180910390f35b6006602052816000526040600020602052806000526040600020600091509150505481565b3373ffffffffffffffffffffffffffffffffffffffff16600760009054906101000a900473ffffffffffffffffffffffffffffffffffffffff1673ffffffffffffffffffffffffffffffffffffffff16146103ba576040517f08c379a000000000000000000000000000000000000000000000000000000000815260040180806020018281038252600a8152602001807f4f6e6c79204f776e65720000000000000000000000000000000000000000000081525060200191505060405180910390fd5b80600a8190555050565b60011515600460009054906101000a900460ff1615151461044d576040517f08c379a00000000000000000000000000000000000000000000000000000000081526004018080602001828103825260138152602001807f62696464696e672069732066696e69736865640000000000000000000000000081525060200191505060405180910390fd5b6008544211156104c5576040517f08c379a00000000000000000000000000000000000000000000000000000000081526004018080602001828103825260088152602001807f54696d657320557000000000000000000000000000000000000000000000000081525060200191505060405180910390fd5b34600560008381526020019081526020016000206000828254019250508190555034600660003373ffffffffffffffffffffffffffffffffffffffff1673ffffffffffffffffffffffffffffffffffffffff16815260200190815260200160002060008381526020019081526020016000206000828254019250508190555050565b600047905090565b60056020528060005260406000206000915090505481565b6000600660003373ffffffffffffffffffffffffffffffffffffffff1673ffffffffffffffffffffffffffffffffffffffff1681526020019081526020016000206000600260000154815260200190815260200160002054905060008111610637576040517f08c379a000000000000000000000000000000000000000000000000000000000815260040180806020018281038252601f8152602001807f796f7520646f206e6f74206861766520616e792077696e6e696e67206265740081525060200191505060405180910390fd5b60001515600460009054906101000a900460ff161515146106c0576040517f08c379a00000000000000000000000000000000000000000000000000000000081526004018080602001828103825260188152602001807f62696464696e67206e6f742066696e697368656420796574000000000000000081525060200191505060405180910390fd5b600060646005600060026000015481526020019081526020016000205402600a54836005600060026001015481526020019081526020016000205402028161070457fe5b0482019050600060646005600060026000015481526020019081526020016000205402600a54606403846005600060026001015481526020019081526020016000205402028161075057fe5b0490506000600660003373ffffffffffffffffffffffffffffffffffffffff1673ffffffffffffffffffffffffffffffffffffffff168152602001908152602001600020600080548152602001908152602001600020819055506000600660003373ffffffffffffffffffffffffffffffffffffffff1673ffffffffffffffffffffffffffffffffffffffff16815260200190815260200160002060006001548152602001908152602001600020819055503373ffffffffffffffffffffffffffffffffffffffff166108fc839081150290604051600060405180830381858888f19350505050158015610848573d6000803e3d6000fd5b50600760009054906101000a900473ffffffffffffffffffffffffffffffffffffffff1673ffffffffffffffffffffffffffffffffffffffff166108fc829081150290604051600060405180830381858888f193505050501580156108b1573d6000803e3d6000fd5b50505050565b600760009054906101000a900473ffffffffffffffffffffffffffffffffffffffff1681565b3373ffffffffffffffffffffffffffffffffffffffff16600760009054906101000a900473ffffffffffffffffffffffffffffffffffffffff1673ffffffffffffffffffffffffffffffffffffffff16146109a0576040517f08c379a000000000000000000000000000000000000000000000000000000000815260040180806020018281038252600a8152602001807f6f6e6c79204f776e65720000000000000000000000000000000000000000000081525060200191505060405180910390fd5b81600260000181905550806002600101819055506000600460006101000a81548160ff0219169083151502179055505050565b60003373ffffffffffffffffffffffffffffffffffffffff16600760009054906101000a900473ffffffffffffffffffffffffffffffffffffffff1673ffffffffffffffffffffffffffffffffffffffff1614610a98576040517f08c379a000000000000000000000000000000000000000000000000000000000815260040180806020018281038252600a8152602001807f4f6e6c79204f776e65720000000000000000000000000000000000000000000081525060200191505060405180910390fd5b6001600460006101000a81548160ff021916908315150217905550814201600881905550600960008154809291906001019190505550600954905091905056fea265627a7a72315820cf70da546c04f50d85a2a0eb060a76fbea9ef47dd201001440620d5ffbb3fd7e64736f6c63430005100032",
  "source": "// SPDX-License-Identifier: MIT\npragma solidity 0.5.16;\n\ncontract UpDown {\n  uint Up=0;\n  uint Down=1;\n  \n  struct Result {\n    uint winner;\n    uint loser;\n  }\n  Result result;\n  bool biddingOpen = false;\n\n  mapping (uint => uint ) public bets;\n  mapping(address => mapping(uint => uint)) public betsPerGambler;\n  \n  address payable public owner;\n   constructor() public {\n    owner = msg.sender; \n  }\n\n  uint time;\n  uint gameIndex;\n\n  function startGame(uint _time) public returns(uint) {\n    require(owner == msg.sender, \"Only Owner\");\n    biddingOpen = true;\n    time = block.timestamp + _time;\n    gameIndex++;\n    return (gameIndex);\n  }\n  \n  function getBalance () public view returns (uint){\n      return address(this).balance;\n  }\n\n  function placeBet(uint _side )  public payable {\n    require(biddingOpen  == true, 'bidding is finished');\n    require(block.timestamp <= time, \"Times Up\");\n    bets[_side] += msg.value;\n    betsPerGambler[msg.sender][_side] += msg.value;\n  }\n\n  uint bonus;\n\n  function setBonus(uint _bonus) public {\n      require(owner == msg.sender, \"Only Owner\");\n      bonus = _bonus;\n  }\n\n  function withdrawGain() external payable {\n    uint gamblerBet = betsPerGambler[msg.sender][result.winner];\n    require(gamblerBet > 0, 'you do not have any winning bet');  \n    require(biddingOpen  == false, 'bidding not finished yet');\n    uint gain = gamblerBet + bets[result.loser] * gamblerBet * bonus / (bets[result.winner]*100);\n    uint ownergain = bets[result.loser] * gamblerBet * (100-bonus) / (bets[result.winner]*100);\n    betsPerGambler[msg.sender][Up] = 0;\n    betsPerGambler[msg.sender][Down] = 0;\n    msg.sender.transfer(gain);\n    owner.transfer(ownergain);\n  }\n\n  function reportResult(uint _winner, uint _loser) public {\n    require(owner == msg.sender, 'only Owner');\n    result.winner = _winner;\n    result.loser = _loser;\n    biddingOpen  = false;\n  }\n  \n}",
  "sourcePath": "/home/dell/workspace/upDown/contracts/UpDown.sol",
  "compiler": {
    "name": "solc",
    "version": "0.5.16+commit.9c3226ce.Emscripten.clang"
  },
  "schemaVersion": "3.3.2",
  "updatedAt": "2020-11-30T09:42:56.113Z",
  "devdoc": {
    "methods": {}
  },
  "userdoc": {
    "methods": {}
  }
}